000FB SERVIÇOS LTDA (MATRIZ)          MASTERFOODS BRASIL ALIMENTOS LTDA  0306241532CON030615320                                                                                                                                                                                                                                                                                                                                                                                                                                                                                                                                                                                                         
0320CONHE030603320                                                                                                                                                                                                                                                                                                                                                                                                                                                                                                                                                                                                                                                                                       
32112032308000106FB SERVIÇOS LTDA (MATRIZ)                                                                                                                                                                                                                                                                                                                                                                                                                                                                                                                                                                                                                                                              
3221         3    2860        01062024C000000000000000065909100000000065909100120000000000790910000000000000000000000000000000000000000000000000000000000000000000000000000000000000000000000000000000002693120323080001062973736800372000100215799001002158020010021579800100215798001002157960010021579700100215800                                                                                                                                                                                                                                                                                                                                                                           INU     
32931   000000000000000000000000000000          3    2860                                                                                                                                                                                                                                                                                                                                                                                                                                                                                                                                                                                                                                               
3221         3    2861        01062024C000000000000000065909100000000065909100120000000000790910000000000000000000000000000000000000000000000000000000000000000000000000000000000000000000000000000000002693120323080001062973736800372000100215799001002158020010021579800100215798001002157960010021579700100215800                                                                                                                                                                                                                                                                                                                                                                           INU     
32931   000000000000000000000000000000          3    2861                                                                                                                                                                                                                                                                                                                                                                                                                                                                                                                                                                                                                                               
3230001000000000659091                                                                                                                                                                                                                                                                                                                                                                                                                                                                                                                                                                                                                                                                                  
